:020000040800F2
:1000000060A20020DD01000873200008171E000810
:1000100071200008F70800086D28000800000000A3
:10002000000000000000000000000000992000080F
:10003000A909000800000000972000089B20000884
:10004000F7010008F7010008F7010008F7010008B0
:10005000F7010008F7010008F7010008F7010008A0
:10006000F7010008F7010008F7010008F701000890
:10007000F7010008F7010008F7010008F701000880
:10008000F7010008F7010008F7010008F701000870
:10009000F7010008F7010008F7010008F701000860
:1000A000F7010008F7010008F7010008F701000850
:1000B000F7010008F7010008F7010008F701000840
:1000C000F7010008F7010008F7010008F701000830
:1000D000F7010008F7010008F7010008F701000820
:1000E000F7010008F7010008F7010008F701000810
:1000F000F7010008F7010008F7010008F701000800
:10010000F7010008F7010008F7010008F7010008EF
:10011000F7010008F7010008F7010008F7010008DF
:10012000F9080008F7010008F7010008F7010008C6
:10013000F7010008F7010008F7010008F7010008BF
:10014000F7010008F7010008F7010008F7010008AF
:10015000F7010008F7010008F7010008F70100089F
:10016000F7010008F7010008F7010008F70100088F
:10017000F7010008F7010008F7010008000000007F
:10018000F7010008F7010008F7010008F70100086F
:10019000F7010008F7010008F7010008F70100085F
:1001A000F7010008F7010008F7010008F70100084F
:1001B000F7010008F7010008F7010008F70100083F
:1001C000F7010008F7010008DFF80CD000F03EFA54
:1001D000004800478131000860A20020064880479F
:1001E00006480047FEE7FEE7FEE7FEE7FEE7FEE71C
:1001F000FEE7FEE7FEE7FEE729210008C901000847
:100200002DE9F05F0546002092469B46884606464B
:10021000814640241BE0284641464746224600F0DE
:100220004CF853465A46C01A914110D3114618460D
:10023000224600F033F82D1A67EB01084F4622469C
:100240000120002100F02AF817EB00094E41201E82
:10025000A4F10104DFDC484631462A464346BDE8A6
:10026000F09F421C10F8011B0029FBD1801A704737
:1002700030B50B46014600202022012409E021FA76
:1002800002F59D4205D303FA02F5491B04FA02F573
:100290002844151EA2F10102F1DC30BD202A04DB46
:1002A000203A00FA02F1002070479140C2F1200389
:1002B00020FA03F3194390407047202A04DB203AC8
:1002C00021FA02F00021704721FA02F3D040C2F176
:1002D000200291400843194670472DE9FE4F8046A1
:1002E00081EA0300C00F0C46009021F0004123F08A
:1002F0000045B8EB0200A94105D240462146904690
:100300001C460B46024623F00040104347D0270D01
:10031000C7F30A00C3F30A510290401A0190402823
:100320006BDAC3F3130040F4801B0098924620B1AF
:100330000023D2EB030A63EB0B0B01985946C0F183
:1003400040025046FFF7AAFF06460D465046594662
:10035000019A00F08DF910EB08006141002487EA52
:10036000115284EAE7731A4340D0009A62B3019AAB
:10037000012A4FEA075215DC001B61EB02014FF026
:10038000004202EA0752CDE90042001C41F580110B
:1003900032462B4600F08DF903B0BDE8F08F4046A1
:1003A0002146F9E7001B61EB0201001C41F58013B7
:1003B00000185B412018A2F5001747EB030140EA43
:1003C000D570B6196D4111E06D084FEA360645EA61
:1003D000C0754FEA0752001B61EB0201001C41F59A
:1003E000801149084FEA30000019514132462B462E
:1003F00003B0BDE8F04F00F04DB900980122400075
:100400000023D0EB020263EBE073009821464FEA31
:10041000E074B8EB000061EB0401E9E783F000430E
:100420005BE781F0004158E72DE9FE4F81EA0304C4
:1004300004F0004421F0004100944FF0000B23F041
:10044000004350EA01045ED052EA03045BD0C3F3D8
:100450000A54C1F30A552C44A4F2F3340194A0FBCE
:100460000254C1F3130141F48011C3F3130343F4A5
:10047000801301FB024400FB034E840A970A44EAFE
:10048000815447EA8357A4FB076802958D0A05FB50
:1004900007854FEA932C04FB0C542705029D4FEA75
:1004A000065847EA1637B5EB08056EEB070C870EC2
:1004B000920E47EA811742EA8312A7FB0201B6EBCC
:1004C0000B0164EB00042B0D43EA0C335E1844EB84
:1004D0001C50DA465146E7FB0201C5F313044FEA0C
:1004E0000B3343EA14534FEA0432019C43EA0603F8
:1004F000A4F10C040294009CCDE900B400F0D9F8FA
:1005000003B0BDE8F08F00200146F9E72DE9F04D7A
:1005100081EA030404F0004B21F0004514464FF03B
:10052000000A23F0004150EA050220D054EA0102FB
:100530001DD0C5F30A570246C5F31303C1F31300D8
:10054000C1F30A5640F4801543F48013A7EB060864
:10055000101BD64608F2FD3873EB050002D308F1F4
:10056000010801E092185B41B8F1000F03DA0020A6
:100570000146BDE8F08D00204FF480110646844608
:100580000EE0171B73EB050705D3121B63EB050386
:1005900006434CEA010C49084FEA300092185B41CF
:1005A00050EA0107EDD152EA030012D082EA0400BA
:1005B00083EA0501084305D0101BAB4106D2012296
:1005C000002306E000224FF0004302E06FF001023A
:1005D00053101AEB06004CEB085110EB0A0041EBEC
:1005E0000B01BDE8F04D00F055B8C1F30A52C1F35C
:1005F000130140F2FF3341F480119A4202DA0020E5
:100600000146704740F233439A42A2F2334202DC81
:100610005242FFF752BEFFF741BE000030B5041E44
:1006200071F1000404DB4FF00044404264EB01012F
:10063000141E73F1000405DB1C464FF000435242C8
:1006400063EB0403994208BF904230BD064C074D4E
:1006500006E0E06840F0010394E807009847103492
:10066000AC42F6D3FFF7B4FD7032000890320008B8
:10067000202A06DBCB17203A41FA02F043EAE07366
:1006800006E041FA02F3D040C2F120029140084353
:100690001946704710B5141E73F1000408DA401CA7
:1006A00041F1000192185B411A4301D120F0010091
:1006B00010BD2DE9F04D92469B4611B1B1FA81F281
:1006C00002E0B0FA80F220329046FFF7E7FD0446E0
:1006D0000F4640EA0A0041EA0B0153465A460843D6
:1006E00013D0114653EA010019D0C8F14002504618
:1006F000FFF7E3FD05460E46504659464246FFF7D2
:10070000CDFD084305D0012004E020463946BDE870
:10071000F08D0020054346EAE0762C4337430A98E3
:100720006305E40AA0EB08000022FD0A44EA4754EE
:100730000A3002D500200146E9E701051019694198
:10074000DDE9084500196941BDE8F04DA2E7000068
:1007500049496FF0706210B5D1F8043323F4403387
:10076000C1F80433D1F8043344682343C1F8043397
:1007700001684B6823F480734B60016803694C681F
:1007800044EA03234B6001684B6823F040734B60DD
:10079000016884684B6823434B6001688B6823F4CD
:1007A00000638B600168C4688B6823438B60816A37
:1007B000D14201688A6822F070628A6001680DD0B7
:1007C000836A8A681A438A6001688A6822F0405204
:1007D0008A600168C36A8A681A4302E08A6822F064
:1007E00040528A6001688A6822F002028A600168C9
:1007F00082698B6843EA42028A60016A00290168C3
:1008000011D01E4A4B6843F400634B6001684B688B
:1008100023F460434B600168446A4B6802EB443246
:1008200013434B6003E04A6822F400624A600168A7
:10083000134BCA6A22F47002CA620168848BCA6AC6
:1008400003EB04531A43CA6201688A6822F40072F7
:100850008A600168026B8B6843EA42228A60016801
:100860008A6822F480628A60016840698A6842EA84
:100870008020886010BD00000020014000E0FFFFE4
:100880000000F0FF0146806B026C12F0500F03D0A5
:10089000806BC26C08461047016C41F40071016422
:1008A00001688A6812F0405F17D18269AAB9CA6AE2
:1008B00012F4700F02D08A6852050ED44A6822F0F2
:1008C00020024A60016C21F480710164016CC9044A
:1008D00003D4016C41F00101016400F0CFB9806BD9
:1008E00040210164416C41F00401416400F0E3B92E
:1008F000806B00F0DFB9FEE7014800F0D3BA0000DA
:10090000FC9D002001681823CAB2103AB2FBF3F232
:10091000054B6FF30901032A9B5CC36500D9091DD0
:1009200081650846704700005032000810B58369A1
:100930004FF0C074826A0146002053B1B3F5005FE6
:1009400015D072B1012A0CD0022A0AD0032A09D18B
:1009500004E01AB1012A06D0022A03D1C96AC901EA
:1009600000D5012010BDC96AA142FAD010BD002AED
:10097000F7D0012AF2D0022AF3D0032AF3D010BD17
:1009800030B50468256825F4802525600468636017
:100990008368402B036803D099600068C26030BD53
:1009A0009A600068C16030BD7047000030B590F8B3
:1009B0003C20012A2BD0174A012300F83C3F00239A
:1009C000D2F8044324F01F04C2F80443D2F80443CD
:1009D0000D682C43C2F80443D2F8044324F4404485
:1009E000C2F80443D2F804434D682C43C2F80443D0
:1009F000D2F8044324F47064C2F80443D2F80443E8
:100A000089680C43C2F804430370002030BD022003
:100A100030BD000000200140F8B513460446002216
:100A2000009290F83C00012807D0012084F83C0097
:100A300020688568ED0702D011E00220F8BD8668C5
:100A40002E4D46F0010686602D480068B0FBF5F09B
:100A500000EB400000E0401E00900028FBD1206821
:100A60008568ED0747D0256C40F20166B54345F433
:100A7000807525644068400505D5206C20F4005041
:100A800040F480502064206CC00404D5606C20F0D9
:100A90000600606400E062646FF0020584F83C20A8
:100AA000A66B194A1748F263A66B184A3264A66B04
:100AB000174AF264226815602268556845F080651F
:100AC0005560226B002AD0F8042302D042F4005271
:100AD00001E022F40052C0F80423A06B0A460D493D
:100AE00000F022FB2068816811F0405F03D181682B
:100AF00041F0804181600020F8BD000040420F00BD
:100B0000140000200020014085080008F1080008BA
:100B1000DF08000808230140F8B50025009590F88B
:100B20003C20012A18D0012280F83C200A680723C3
:100B30004E4C0668092A1AD90A3A02EB4207F268B3
:100B4000BB409A43F2600E680268A64206D10B7A57
:100B5000D66846EA036308E00220F8BD0A3E8B68C7
:100B6000D76806EB4606B3403B43D3600EE002EB8A
:100B700042073269BB409A43326103680E788A6843
:100B80001F6906EB4606B2403A431A614A681F23C2
:100B9000072A13D20668521E02EB8207726BBB4013
:100BA0009A43726303680E790A88761E5F6B92B26D
:100BB00006EB8606B2403A435A6327E006680D2AE0
:100BC00012D2D21F02EB8207326BBB409A433263D0
:100BD00002680E790B88F61F176B9BB206EB860630
:100BE000B3403B43136311E00D3A02EB8207F26A14
:100BF000BB409A43F26202680E790B880D3ED76AB9
:100C00009BB206EB8606B3403B43D362184A0368A7
:100C1000934208D10B68122B05D1D2F8043343F468
:100C20008003C2F80433036893421AD10B68A342CD
:100C300001D0112B15D1D2F8043343F40003C2F8CC
:100C400004330968A1420CD10A490B4A0968B1FB77
:100C5000F2F101EB8101490000E0491E00910029F9
:100C6000FBD180F83C500020F8BD000012000010BD
:100C7000002001401400002040420F002DE9F04107
:100C8000084E5FF00004084D42F2107716F8240079
:100C90002870297805A002F0B9FA641CBC42F5DB83
:100CA000BDE8F081BC010020000000202564200D7B
:100CB0000A0000007047704770B504004FF000054F
:100CC00003D0206C002610B107E0012070BD6664DF
:100CD000204684F83C6000F019F8206CC00610D45F
:100CE000206C20F4885040F0020020642046FFF77A
:100CF0002FFD6664206C20F0020040F001002064AB
:100D000000E0012584F83C60284670BDF0B5294E0E
:100D10000025046801222849032307462748B442D6
:100D200087B02AD10C6844F480740C60096801F41F
:100D3000807105918DE82C00694600F033FA204C53
:100D4000204804F1140C011520606560821486159A
:100D5000A560C801C4E90351C4E908050B01204698
:100D60008CE84C0000F06EF918B1742116A001F067
:100D70007FFDBC63A76307B0F0BD1A4EB44207D134
:100D80000C6844F400740C60096801F4007109E017
:100D9000154EB442EFD10C6844F480640C600968CD
:100DA00001F4806105918DE82C00694600F0FAF9A4
:100DB000E1E700000020014044380240000002400A
:100DC000FC9D0020106402402E2E2F5372632F735F
:100DD000746D3332663778785F68616C5F6D7370FD
:100DE0002E630000002101400022014018B50022BE
:100DF000009290F83C10012907D0012180F83C10A6
:100E000001688B68DB0702D011E0022018BD8C68F6
:100E1000214B44F001048C6020490968B1FBF3F1D7
:100E200001EB410100E0491E00910029FBD101685E
:100E30008B68DB072DD0036C40F20164A34343F4BD
:100E4000807303644B685B0505D5036C23F4005382
:100E500043F480530364036CDB0404D5436C23F038
:100E60000603436400E042646FF022040C4B80F8F8
:100E70003C200C60D3F804130068C90601D09842E6
:100E800007D1816811F0405F03D1816841F0804152
:100E90008160002018BD000040420F0014000020B7
:100EA000002001402DE9F84304464FF00009644B4F
:100EB0000820CDF800904FF41652A56D94F85C1000
:100EC0001B682E68B3FBF2F700FA01F131420FD034
:100ED00021680A6852070BD50A6822F004020A60EA
:100EE00094F85C108840A860606D40F00100606577
:100EF00094F85C104FF0010808FA01F0304208D075
:100F000021684969090604D5A860606D40F00200B7
:100F1000606594F85C1004208840304208D0216855
:100F20000968890704D5A860606D40F00400606519
:100F300094F85C1010208840304218D0216809686D
:100F4000090714D5A86020680168490304D5006822
:100F5000000308D5A16C07E00168C90503D4016846
:100F600021F008010160216C09B12046884794F8FE
:100F70005C1020208840304231D021680968C906C1
:100F80002DD5A86094F8350005282068016806D0A2
:100F9000490347D5006800031DD4616C1CE021F0B3
:100FA000160101602068416921F080014161206CD7
:100FB00008B9A06C20B12068016821F00801016027
:100FC00094F85C303F229A40AA6084F8349084F808
:100FD0003580216D1FE0E16B09B120468847606DC7
:100FE00000282BD0606DC00714D0052084F8350090
:100FF0002068016821F0010101600098401C009008
:10100000B84203D820680068C007F6D184F834904D
:1010100084F83580E16C002910D001B02046BDE88D
:10102000F04308470168C905D5D4036823F01003CD
:10103000036084F8349084F83580CCE7BDE8F88309
:10104000140000202DE9F047044600F09DF9054604
:1010500064B14FF0000984F83490022184F835100F
:101060002068016821F0010101600EE00120BDE867
:10107000F08700BF00F088F9401B052805D9202122
:101080006165032084F83500F1E720680068C00737
:10109000F0D1D4E90020D4E90251D4E9043C28433A
:1010A00004F1180519430843116895E8E00140EA86
:1010B0000C001C4B2843194040EA060040EA070098
:1010C000B8F1040F40EA010003D1D4E90B1319432E
:1010D0000843106020680126656A4069042D20F0ED
:1010E000070045EA00050CD1D4E90A01054341B1E6
:1010F0002046FFF71BFC20B14020606584F8356076
:10110000B4E7206845612046FFF7FCFB94F85C30AB
:101110003F229A408260C4F8549084F835600020E1
:10112000A5E700003F8010F02DE9F041044690F85B
:10113000340000250128A66D0ED094F835C0012793
:10114000002084F83470BCF1010F07D0022584F828
:1011500034002846BDE8F0810220FBE7022784F82E
:10116000357060652046FFF70BFC94F85C103F205B
:101170008840B0602068016841F016010160206875
:10118000416941F080014161206C20B12068016813
:1011900041F0080101602068016841F0010101602F
:1011A000D7E700002DE9F84FDFF89CE100224FF06F
:1011B00001084FF0030B4FF00F0A00BF0B6808FA4D
:1011C00002F42340A34271D14D68022D01D0122DAB
:1011D0000FD1D5080E69570700EB8505A9462D6A82
:1011E000FF0E0AFA07FCBE4025EA0C052E43C9F89B
:1011F00020600F79550006680BFA05FC07F003071D
:1012000026EA0C06AF40374307604E68012E05D032
:10121000022E03D0112E01D0122E0ED18668CF6877
:1012200026EA0C06AF403743876046680F79A6432D
:10123000C7F30017974037434760C4688E6824EAB5
:101240000C04AE402643C6604C68E40075D53F4CA4
:10125000256845F480452560246822F0030695073B
:1012600004F4804400943A4C2D0F2644D6F80848E4
:10127000DFF8E0C00AFA05F7604524EA070401D167
:1012800000272EE0344FB84201D1012729E0334F27
:10129000B84201D1022724E0314FB84201D10327DF
:1012A0001FE0304FB84202D104271AE045E02E4F2C
:1012B000B84201D1052714E02C4FB84201D10627CE
:1012C0000FE02B4FB84201D107270AE0294FB8425F
:1012D00001D1082705E0284FB84201D1092700E0D5
:1012E0000A27AF4027437546C6F808784E68DEF8EF
:1012F0000040F60324EA030400D51C43124E2C6080
:10130000361D4D683468AD0324EA030400D51C4340
:101310000D4F346008374D683C68ED0224EA030441
:1013200000D51C43084D3C600C354E682C68B60255
:1013300024EA030400D51C432C60521C102AFFF43D
:101340003DAFBDE8F88F0000003C0140443802404A
:10135000003001400000024000040240000802404A
:10136000000C02400010024000140240001802402D
:10137000001C024000200240002402400AB18161AA
:1013800070470904FBE700000148806870470000CF
:10139000080000200248816802781144816070478B
:1013A00008000020032010B500F096F8002000F09F
:1013B00005F800F023F8002010BD000070B50D4DB9
:1013C00004464FF47A700C4A29781268B0FBF1F0A9
:1013D000B2FBF0F000F05DFB48B9102C07D2002200
:1013E0002146501E00F058F800206C6070BD0120AE
:1013F00070BD000008000020140000201F4808B540
:10140000016841F080510160006800F08050009058
:101410001A48001D016841F480410160006800F431
:1014200080400090032000F057F800226FF00B007E
:10143000114600F031F800226FF00A00114600F06A
:101440002BF800226FF00900114600F025F8002269
:10145000501F114600F020F80022101F114600F026
:101460001BF80022901E114600F016F80022BDE87D
:101470000840501E114600F00FB8000040380240EE
:10148000410900F01F028900012001F1E021904094
:10149000C1F80001704700000E4BF0B41B680D4608
:1014A000C3F30223C3F10706042E00D90426191D35
:1014B000072901D2002300E0DB1E012404FA06F113
:1014C0009C40491E2940641E994014402143F0BCB1
:1014D00000F0D0BD0CED00E0064900F0070210B5A9
:1014E0004FF6FF040868044B204040EA02201843EE
:1014F000086010BD0CED00E00000FA051848F8B5D2
:10150000016841F0805101600068164C00F0805085
:101510000090206840F480302060FFF735FF4FF4E2
:101520007A76054605E000BFFFF72EFF401BB0426C
:101530000FD86068C003F7D5206840F40030206001
:10154000FFF722FF054606E0FFF71EFF401BB042F3
:1015500001D90320F8BD60688003F5D50020F8BDEF
:1015600040380240007000402DE9F04705000F466A
:1015700063D0444E306800F00F00B84209D23068A2
:1015800020F00F0038433060306800F00F00B842A0
:1015900053D128683C4C810712D5400703D52068F9
:1015A00040F4E05020602878000703D5206840F41C
:1015B00060402060A968206820F0F00008432060A7
:1015C0002878C0072AD0304968680839012810D027
:1015D0000968022810D0890700292EDA216821F035
:1015E000030101432160FFF7CFFE804641F28839B5
:1015F0000DE009688903EFE78901EDE7FFF7C4FE15
:10160000A0EB0801494502D90320BDE8F0876868CE
:10161000216801F00C01B1EB800FEFD1306800F0D0
:101620000F00B8420BD9306820F00F00384330600B
:10163000306800F00F00B84201D00120E5E72878BB
:10164000400705D5E968206820F4E0500843206091
:101650002878000706D52869216821F4604141EA0D
:10166000C000206000F03CF82168084AC1F3031173
:10167000515CC840064908600020FFF79FFE00202B
:10168000C3E70000003C024008380240583200081E
:10169000140000200148006870470000140000207A
:1016A0000449054809680068044AC1F38221515C75
:1016B000C840704708380240140000206832000813
:1016C0000449054809680068044AC1F34231515C85
:1016D000C8407047083802401400002068320008F3
:1016E000154910B51548096811F00C0213D04110C6
:1016F000042A0FD0082A0ED10F4C241F2268236819
:1017000002F03F025B0207D52068C0F38810A0FBFF
:10171000010106E0084610BD2168C1F38811A1FB54
:1017200000010023FEF76CFD2168C1F30141491C53
:101730004900B0FBF1F010BD083802400024F4006D
:101740002DE9F84F05004FF000076ED02878DFF83C
:101750001C93A9F1040AC007AAF104044CD0D9F8DB
:1017600000104846C1F38101012908D00068C0F388
:10177000810002280AD1DAF80000400206D520686C
:10178000800339D568680028DFD035E06868B0F597
:10179000803F0BD010B1B0F5A02F11D0206820F4FD
:1017A00080302060206820F4802002E0206840F42F
:1017B00080302060686890B1FFF7E6FD06460AE0D9
:1017C000206840F480202060F0E700BFFFF7DCFDD8
:1017D000801B642872D820688003F7D50CE0FFF7DF
:1017E000D3FD064605E000BFFFF7CEFD801B642851
:1017F000F0D820688003F7D42878800742D5D9F83C
:101800000010484611F00C0F08D00068C0F38100AA
:1018100002280BD1DAF80000400207D420688007C4
:1018200018D5E868012800D114E01CE1E868002818
:10183000206817D040F001002060FFF7A5FD0646A4
:1018400005E000BFFFF7A0FD801B0228C2D820687A
:101850008007F7D52869216821F0F80141EAC00026
:1018600020600FE020F001002060FFF78DFD0646AC
:1018700005E000BFFFF788FD801B02281ED8206806
:101880008007F7D42878000729D5784869696C3033
:1018900000298046016812D041F001010160FFF784
:1018A00073FD064605E000BFFFF76EFD801B0228B2
:1018B00004D8D8F800008007F6D510E089E021F0C0
:1018C00001010160FFF760FD064604E0FFF75CFDE3
:1018D000801B02287DD8D8F800008007F6D428782D
:1018E00040076BD5DFF8848108F13808D8F800008C
:1018F000C0000BD4D8F8001041F08051C8F8001097
:10190000D8F80000012700F0805000905848016886
:10191000C90512D40168834641F480710160FFF764
:1019200033FD064605E000BFFFF72EFD801B64284F
:101930004FD8DBF80000C005F6D54C4EA8686836D5
:1019400001280AD008B1052811D0306820F0010024
:101950003060306820F0040002E0306840F00100A0
:101960003060A868A0B1FFF70FFD83460CE0306837
:1019700040F004003060F0E7FFF706FDA0EB0B013C
:1019800041F28830814266D830688007F4D50EE095
:10199000FFF7FAFC834607E0FFF7F6FCA0EB0B012C
:1019A00041F28830814256D830688007F4D42FB194
:1019B000D8F8001021F08051C8F80010A869C8B309
:1019C000D9F80010C1F3810102294CD00228206807
:1019D00000E040E020F08070206003D0FFF7D4FCEE
:1019E00005463BE0FFF7D0FC064604E0FFF7CCFCE1
:1019F000801B02282FD820688001F7D4D5E909621E
:101A0000D5E907011B4B570895F82C20084303EB39
:101A1000074343EA8611084340EA026040F0005061
:101A2000CAF80000206840F080702060FFF7ACFC2E
:101A3000054606E015E000BFFFF7A6FC401B0228A4
:101A400009D820688001F7D50BE000BFFFF79CFCA8
:101A5000401B022802D90320BDE8F88F20688001CE
:101A6000F4D40020F8E70120F6E70000083802402F
:101A7000007000400000FFFF04284FF0E0200169E3
:101A800003D021F004010161704741F00401FAE73D
:101A90007047401EB0F1807F10B501D3012010BD0A
:101AA0004FF0E02460610F21601700F0E3FA00209E
:101AB000A0610721216110BD10B5FFF7E9FF10BD3E
:101AC00070B5044690F83C000D4601280ED0012662
:101AD00084F83C60022084F83D000C2A45D007DCE5
:101AE0005AB1042A1BD0082A78D12CE0022070BDFC
:101AF000102A4ED0142A71D15DE0206800F0B0FBAE
:101B00002068816941F0080181612068816921F0C4
:101B10000401816120682A698169114311E020680C
:101B200000F0D2FB2068816941F400618161206886
:101B3000816921F48061816120682969826942EAB2
:101B4000012181614AE0206800F0F4FB2068C1694E
:101B500041F00801C1612068C16921F00401C1613F
:101B600020682A69C169114311E0206800F018FC5F
:101B70002068C16941F40061C1612068C16921F434
:101B80008061C16120682969C26942EA0121C1619D
:101B900024E0206800F030FC2068416D41F008012D
:101BA00041652068416D21F00401416520682A6982
:101BB000416D114311E0206800F04AFC2068416D3E
:101BC00041F4006141652068416D21F48061416507
:101BD00020682969426D42EA01214165002084F8AC
:101BE0003D6084F83C0070BD10B5040003D094F84B
:101BF0003D0010B107E0012010BD002084F83C003A
:101C0000204600F00DF8022084F83D002068211DD8
:101C100000F0B4FA012084F83D00002010BD00005F
:101C2000124800B587B0016841F002010160006808
:101C300000F0020005900D481038016841F00201E3
:101C4000016000680DF1040C012100F00200059014
:101C5000022003228CE80700049010230448694600
:101C60000093FFF79FFA07B000BD00004038024024
:101C70000004024010B501220446006800F0E4FAB6
:101C800008492068884202D00749884203D1416C44
:101C900041F4004141642068016841F001010160A4
:101CA000002010BD000001400004014010B50400F8
:101CB00003D094F8690010B107E0012010BD0020A6
:101CC00084F86800204600F027F8242084F8690092
:101CD0002068016821F001010160204600F068FCE5
:101CE0000128EBD0606A10B1204600F0DDFB2068CF
:101CF000416821F4904141602068816821F02A0107
:101D000081602068016841F0010101602046BDE862
:101D1000104000F02DBC000010B5006886B00D49E1
:101D2000884214D10C48016841F01001016000683C
:101D30000221002200F010000590032307244FF435
:101D4000C0608DE81F0005486946FFF72BFA06B012
:101D500010BD000000100140443802400000024065
:101D60002DE9F843044690F869001F4616460D46D3
:101D700020284ED1C5B1BEB194F86800012848D0E2
:101D8000012284F8682021214FF00008C4F86C80FB
:101D900084F869105034FFF7F7FA26808146668090
:101DA000503C4FF4805619E00120BDE8F88300BF95
:101DB000B4F85200401EA4F8520000224B46802185
:101DC0002046009700F020FDA0B9A068B04201D1E4
:101DD000206988B115F8010B21688862B4F85200B7
:101DE0000028E5D100224B4640212046009700F014
:101DF0000BFD38B10320D8E735F8020B2168C0F39A
:101E00000800EAE7202184F86910002084F868803F
:101E1000CBE70220C9E7FEE730B51D4801251B4985
:101E200087B06A0600240160C0E90142046185614F
:101E300018490462C0E90A14C561C46005634461BD
:101E4000FEF73AFF18B1144801F0E0F9FBE704AAE5
:101E500017204FF4004182E813000D4804A9FEF753
:101E6000A5FD18B10C4801F0D1F9FBE70848694617
:101E7000CDE900450294FEF74FFE002803D0064846
:101E800001F0C4F9FBE707B030BD000000200140BD
:101E9000180000200100000F782800087FB51348C3
:101EA0000024114901256A06C0E900140461856116
:101EB000C0E90754C0E9022404634461FEF7FCFE54
:101EC00018B10B4801F0A2F9FBE708486946CDE9D3
:101ED00000450294FEF720FE002803D0044801F0DC
:101EE00095F9FBE77FBD0000002101406000002064
:101EF000782800087FB513480024114901256A0697
:101F0000C0E9001404618561C0E90754C0E90224F6
:101F100004634461FEF7D0FE18B10B4801F076F976
:101F2000FBE708486946CDE900450294FEF7F4FD59
:101F3000002803D0044801F069F9FBE77FBD0000E9
:101F400000220140A800002078280008174830B57A
:101F500087B0016841F080010160016801F08001F3
:101F60000591016841F001010160016801F0010182
:101F70000591016841F002010160006844F28104AA
:101F80000B4D002200F00200214605902846FFF785
:101F9000F5F9002100940120CDE9010128460391C3
:101FA0006946FFF7FFF807B030BD00003038024047
:101FB000000402401B481C4A10B519490024016066
:101FC00040F69F715268C0E90314C0E901244461DE
:101FD0008461FFF709FE18B1144801F017F9FBE717
:101FE000104803216022B03084600461C4608461C1
:101FF0004461C0E9002100220146B038FFF760FDCE
:1020000018B10A4801F002F9FBE706480021FFF782
:1020100031FE002803D0054801F0F8F8FBE710BDB9
:1020200000040040F0000020000000207828000894
:102030000D48002110B50B4C0C224FF461230460B5
:10204000C0E90131C160C0E904128161C16101626E
:102050004162FFF72BFE002803D0044801F0D6F8B8
:10206000FBE710BD00100140300100207828000877
:10207000FEE77047090700284FEA116106DA00F011
:102080000F0000F1E02080F8141D704700F1E020FF
:1020900080F8001470477047704710B5FFF77AF961
:1020A000BDE81040FFF708BDF0B5012091B08205F2
:1020B0004FF4A02102240927CDE906424FF4D87637
:1020C000CDE900010025039508236846CDE90836CF
:1020D000CDE90A47FFF734FB00B1FEE7FFF70EFA40
:1020E00000B1FEE74FF480524FF4A0510F20CDE92C
:1020F0000F120CAA072182E831000CA8FFF734FA6E
:1021000000B1FEE7FFF7C6FA4FF47A71B0FBF1F0C9
:10211000FFF7BFFC0420FFF7AFFC0022501E114662
:10212000FFF7BAF911B0F0BD104A30B51048146885
:1021300000210F4B44F470041460083305680D4A05
:102140000D4C45F00105056019600368051D13403D
:10215000074A03600C322C600568E305034C25F444
:1021600080250560803C1160236030BD88ED00E073
:1021700000380240FFFFF6FE10300024F0B5274B78
:102180004FF0804E264D02689842264E264F274C2F
:1021900009D0704507D0A84205D0B04203D0B8425C
:1021A00001D0A04205D1D1F804C022F070024CEA5F
:1021B000020298421BD0704519D0A84217D0B042F5
:1021C00015D0B84213D0A04211D0194DA8420ED05C
:1021D000184DA8420BD0184DA84208D0174DA84260
:1021E00005D0174DA84202D0164DA84203D1CD68A4
:1021F00022F440722A434D6922F080022A43026091
:1022000098428A68C2620A68826201D0A04201D103
:102210000969016301214161F0BD00000000014036
:102220000004004000080040000C00400004014091
:1022300000400140004401400048014000180040B7
:10224000001C00400020004010B5046A01238A40B1
:102250008B409C430462016A1143016210BD00007F
:10226000F0B5026A164B154F22F001029842026245
:10227000066A4268846926F002068B680D6804EAE3
:10228000070424F0030443EA060345EA040502D0E8
:102290000C4CA0420BD1CC6822F44077D1E9056206
:1022A00023F008031C433E43324324F004034260FE
:1022B0008561496841630362F0BD00008FFFFEFF46
:1022C0000000014000040140F0B5026A174B164DB2
:1022D00022F0100298420262046A4268836924F084
:1022E00020048F680E6803EA050323F4407544EA6E
:1022F000071345EA062402D00D4DA8420ED1CD6841
:1023000023F08003D1E9056722F4406243EA051314
:1023100042EA860223F0400342EA87024260846177
:10232000496881630362F0BDFF8FFFFE000001403A
:1023300000040140F0B5026A174B164F22F4807278
:1023400098420262056A4368C26925F400758E6886
:1023500002EA07020C6822F0030745EA062244EA73
:10236000070402D00D4DA8420ED1CD6822F40062C0
:10237000D1E9056723F4405342EA052243EA0613F4
:1023800022F4806243EA07134360C4614968C16371
:102390000262F0BD8FFFFEFF00000140000401401B
:1023A000F0B5026A124B114F22F480529842026239
:1023B000046A4268C36924F400548E680D6803EA15
:1023C000070323F4407344EA063443EA052302D0AA
:1023D000084DA84204D14D6922F4804242EA851298
:1023E0004260C361496801640462F0BDFF8FFFFE73
:1023F0000000014000040140F0B5026ADFF844C06B
:1024000022F480320262056A4268446D25F4003588
:102410000E8960450C4F0B6804EA070445EA06453F
:1024200043EA040302D0094CA04204D14C6922F4CF
:10243000803242EA04224260436549688165056250
:10244000F0BD0000000001408FFFFEFF00040140CE
:10245000F0B5026ADFF844C022F480120262046A16
:102460004268436D24F400140E8960450C4F0D68DA
:1024700003EA070344EA065443EA052302D0094D60
:10248000A84204D14D6922F4802242EA85224260AA
:1024900043654968C1650462F0BD00000000014069
:1024A000FF8FFFFE0004014090F82410C90706D0FA
:1024B0000168836A4A6822F400321A434A6090F83D
:1024C0002410890706D50168C36A4A6822F480325D
:1024D0001A434A6090F82410490706D50168036B37
:1024E0004A6822F480221A434A6090F824100907AF
:1024F00006D50168436B4A6822F400421A434A60D9
:1025000090F82410C90606D50168836B8A6822F406
:1025100080521A438A6090F82410890606D5016813
:10252000C36B8A6822F400521A438A6090F8241020
:10253000490611D50168036C4A6822F480121A43D7
:102540004A60016CB1F5801F06D10168436C4A688E
:1025500022F4C0021A434A6090F82410090606D5F6
:102560000168826C486820F400201043486070477E
:1025700038B500250446C566FEF706FF0346206809
:10258000006800070BD56FF07E40009000222046C7
:102590004FF4001100F038F908B1032038BD2020B5
:1025A00084F8690084F8685084F86A00002038BD17
:1025B0002DE9F04704468068874B884F2668D4E9A8
:1025C0000415E2690843D6F800C010211543002223
:1025D000284315460CEA030C814B4CEA000CC6F864
:1025E00000C04FF400492068D4F80CC0466826F4B7
:1025F000405646EA0C0646602668D4F82080A0695A
:10260000D6F808C040EA08002CF4306C4CEA000C04
:10261000C6F808C02068B8420AD11B6813F003034B
:1026200052D0012B7AD0022B76D0032B79D177E0D0
:102630006C4EB0420AD11B6813F00C036AD0042B15
:102640006CD0082B68D00C2B6BD169E0664EB04281
:102650000AD11B6813F030035CD0102B5ED0202B06
:102660005AD0302B5DD15BE0604EB0420AD11B687E
:1026700013F0C0034ED0402B50D0802B4CD0C02B39
:102680004FD14DE05A4EB0420DD11B6813F4407348
:1026900040D0B3F5807F41D0B3F5007F3CD0B3F597
:1026A000407F3ED13CE0534EB0420FD11B6813F443
:1026B000406309D0B3F5806F30D0B3F5006F2BD0F5
:1026C000B3F5406F2DD12BE001212AE04A4EB042F4
:1026D0000DD11B6813F440531CD0B3F5805F1DD09F
:1026E000B3F5005F18D0B3F5405F1AD118E0434E40
:1026F000B04216D11B6813F440430BD0B3F5804FA2
:102700000CD04B4508D0B3F5404F0AD108E005E0A6
:1027100002E0FFE7002104E0022102E0042100E0E2
:102720000821E6694E452AD109291FD2DFE801F0C8
:102730000508141E171E1E1E1A00FEF7B1FF01E049
:10274000FEF7BEFF0146D4F80400490001EB50013A
:10275000B1FBF0F082B20AE029496068F6E7FEF7C3
:10276000BFFFEFE760684FF48031EFE70125216894
:1027700022F00F00C2F342021043C86028E009298A
:1027800025D2DFE801F005080B24102424241C00C6
:10279000FEF786FF09E0FEF793FF06E06168194A3D
:1027A00002EB51020EE0FEF79BFF0146D4E9002048
:1027B00001EB5001B1FBF0F080B2D06008E061683D
:1027C00009EB5102B2FBF1F189B2C16000E00125D1
:1027D0002846BDE8F0870000F369FFEF00100140D4
:1027E000903802400044004000480040004C004047
:1027F000005000400014014000780040007C004080
:102800000048E8010024F4002DE9F04198461746FD
:102810000E460446069D1DE0681C1BD02DB1FEF738
:10282000B3FDA0EB0800A84214D3216820200022A9
:102830000B6823F4D0730B6021688B6823F00103CD
:102840008B6084F8690084F86A00032084F86820AB
:10285000BDE8F0812068C06936EA000004D000209D
:10286000B842D9D00020F3E70120F9E7FEE70000E5
:1028700001A000F0CBFCFBE74572726F72210000F3
:1028800037B514460846064B6A46214600F0DCF888
:1028900004466946002000F06EFC20463EBD000064
:1028A0007731000802E008C8121F08C1002AFAD1D7
:1028B00070477047002001E001C1121F002AFBD1C0
:1028C000704700002DE9FF5F82B00021DDE9043090
:1028D000020DDDF840B0034318D044F61050A2F2C8
:1028E000FF3242431514119801281FD0A5EB0B00AD
:1028F000401C5FEA000A4FF000064E4FDFF83891A7
:10290000B046504615D5CAF1000413E011980124D1
:102910004AA3012801D16FEA0B010298119AC0E97C
:102920000031C0E9024206B0BDE8F09FCBF10000E3
:10293000DFE704460021404A491842EB0450CDE944
:10294000001012E0E00707D032463B4640464946B9
:10295000FDF76AFD8046894632463B4610461946D9
:10296000FDF762FD06460F466410002CEAD1DDE952
:102970000401DDE90023BAF1000F06DAFDF754FD8A
:1029800042464B46FDF750FD05E0FDF7BFFD4246D0
:102990004B46FDF7BBFD04460E460022284BFDF7D3
:1029A0003DFE03D84FF0FF30014607E00022254BE3
:1029B00020463146FDF791FCFDF717FE102409E093
:1029C000002C0ADB0A220023FDF71AFC039B30329D
:1029D0001A55641E50EA0102F2D1641C039AC4F134
:1029E00011031444119A012A03D0012208430DD186
:1029F0000AE0084304D000204FF0110B119072E759
:102A0000A3EB0B056D1E0DE05B4504DD4FF00002EE
:102A100005F1010504E003DA4FF00002A5F101051C
:102A2000002AECD002981199C0E90231C0E90045B2
:102A300079E70000000014400000F03F3000000083
:102A40000000F0430000E03F2DE9FF4F95B09B46AA
:102A50008946064600250FE2252877D1002427461F
:102A6000F84A0121059400E0044316F8013F203B99
:102A700001FA03F01042F7D130782A2811D06FF014
:102A80002F033078A0F13002092A16D8059A44F0B5
:102A9000020402EB820203EB42021044761C059012
:102AA000EFE759F8042B0592002A03DA504244F468
:102AB0000054059044F00204761C30782E2816D17C
:102AC00016F8010F44F004042A280DD06FF02F02ED
:102AD0003078A0F13003092B09D807EB870302EB0C
:102AE0004303C718761CF3E759F8047B761C30784B
:102AF0006C280FD006DC4C2817D068280DD06A2827
:102B000014D104E0742810D07A280FD10DE044F4D9
:102B100000140AE044F4801401E044F44014727894
:102B2000824202D104F58014761C761C3078662827
:102B30000BD013DC582877D009DC002875D0452845
:102B4000F6D04628F4D047281AD19DE118E0632832
:102B500035D0642879D0652812D195E1702873D0DA
:102B600008DC6728F1D069286FD06E280DD06F2857
:102B700006D1B5E073282CD0752875D0782874D08C
:102B80005A46179990476D1C75E1C4F3025002280C
:102B900009D003280DD0D9F8001004280DD00D60FD
:102BA00009F1040967E1D9F80010EA17C1E90052F8
:102BB000F6E7D9F800100D80F2E70D70F0E719F88C
:102BC000041B8DF8001000208DF80100EA4601205A
:102BD00003E059F804AB4FF0FF3061074FF00001FC
:102BE00002D40DE008F101018846B9420FDA8045B0
:102BF000F8DB1AF808100029F4D108E008F1010107
:102C000088468142FADB1AF808100029F6D10598A7
:102C10005B46A0EB080721463846179A00F094FA65
:102C2000284400EB080507E04DE029E10DE01AF823
:102C3000010B5A4617999047B8F10108F7D25B4645
:102C400021463846179A13E142E00A220092C4F363
:102C500002524FF0000A022A08D059F804CB032A86
:102C60004FEAEC710AD00DE029E02AE009F10701F2
:102C700021F00702F2E802C1914609E00FFA8CFC4C
:102C80004FEAEC71042A03D14FFA8CFC4FEAEC7145
:102C9000002907DA0A460021DCF1000C61EB020191
:102CA0002D2202E0220504D52B228DF804200122DA
:102CB00003E0E20701D02022F7E7904659E00A211D
:102CC00002E010220DE010214FF0000A00910BE00D
:102CD00010224FF0000A44F004040827009203E099
:102CE00008224FF0000A0092C4F30252022A05D0D3
:102CF00059F804CB0021032A08D009E009F10701A3
:102D000021F00702F2E802C1914605E01FFA8CFCAF
:102D1000042A01D10CF0FF0C4FF00008220728D53F
:102D2000702806D0009B83F0100353EA0A0305D0F5
:102D30000EE040228DF80420012208E05CEA010246
:102D400006D030228DF804208DF80500022290462E
:102D5000009B83F0080353EA0A030AD15CEA0102EC
:102D600001D1620705D530228DF804204FF001080B
:102D70007F1E582804D034A003900EA802900DE0C6
:102D800036A0F9E753466046009AFDF739FA8446C3
:102D90000398825C0298401E029002705CEA010077
:102DA000F0D1029806A9081A00F1200A600702D59E
:102DB00024F4803400E00127574502DDA7EB0A0028
:102DC00000E0002000EB0A01009005984144401A01
:102DD0000590E00306D45B462146179A059800F05B
:102DE000B3F90544002706E001A85A46C05D1799CB
:102DF00090476D1C7F1C4745F6DBE0030CD55B4616
:102E00002146179A059800F09FF9054404E0302008
:102E10005A46179990476D1C0099481E009000294A
:102E2000F5DC08E0029802995A460078491C0291A4
:102E3000179990476D1CBAF10001AAF1010AF1DC63
:102E400065E100000928010030313233343536376E
:102E500038396162636465660000000030313233E6
:102E60003435363738394142434445460000000086
:102E700000F058F90544761C307800287FF4ECAD5A
:102E800019B02846BDE8F08F620700D4062709F183
:102E9000070222F0070CFCE80223E14603F0004899
:102EA0005FEA080C02D00FF2702C0DE05FEA045CC0
:102EB00002D50FF2682C07E05FEAC47C02D00FF263
:102EC000602C01E0AFF2700C4FF0FF3823F00043AC
:102ED000CDF850C065280CD006DC452809D046281E
:102EE0001DD047283DD13DE0662818D067287ED107
:102EF00038E00021112F01DB112000E0781CCDE922
:102F0000000106A90EA8FFF7DDFCDDE90F010E9A0E
:102F100003910021009207F1010A04914DE04FF066
:102F200000400097CDE9011006A90EA8FFF7CAFCE2
:102F3000DDE90F0203920E9B11990022DDF80CA02F
:102F40000093049211B9791C00EB010AB7EB0A0057
:102F500004D4C0F1FF3007F1010A0490AAEB070086
:102F6000019044E0012F00DA01270021112F01DD3B
:102F7000112000E03846CDE9000106A90EA8FFF7B0
:102F8000A1FCDDE90F010E9A03910021049100924A
:102F9000BA4621070CD40399514500DA8A46BAF1A2
:102FA000010F05DD009AAAF10101515C302908D01A
:102FB000B84202DA10F1040F06DA0121CDE901105E
:102FC00015E0AAF10101E9E7002805DC04990144B4
:102FD0000491AAEB000102E0411C514500DD8A4644
:102FE0000499401A401C01904FF0004002902007C5
:102FF00004D40198504501DBCDF8048000208DF801
:103000004F0002980DF14F07B0F1004F25D02B2053
:103010000E9002984FF0020800280CDA404202900D
:103020002D200E9007E00A210298FDF721F930319A
:10303000029007F8011DB8F10001A8F10108F2DCC7
:1030400002980028EFD1791E0E980870307800F0B1
:10305000200040F0450007F8020D12A8C01B00F147
:1030600007081498007800B1012000EB0A010198CC
:1030700001EBE07105984144401A401E0590E003C1
:1030800006D45B462146179A059800F05DF8054482
:103090001498007818B15A46179990476D1CE003B0
:1030A00024D55B462146179A059800F04DF8054453
:1030B0001CE00498002807DBDDE90301884203DDFA
:1030C0000098405C179901E0179930205A469047C4
:1030D000049805F10105401C04900198401E0190E0
:1030E00004D12E205A46179990476D1CBAF1000161
:1030F000AAF1010ADDDC05E017F8010B5A46179921
:1031000090476D1CB8F10001A8F10108F4DC5B46A2
:103110002146179A0598ABE62D0000002B00000011
:10312000200000002DE9F041044600251E46174608
:10313000880404D405E039462020B0476D1C641E85
:10314000F9D52846BDE8F0812DE9F0410446002577
:103150001E469046C80301D5302700E0202788048A
:1031600004D505E041463846B0476D1C641EF9D5CC
:103170002846BDE8F0810A68531C0B601070704748
:1031800008B5FEF70FF9FEF78FFF1A481A490068D5
:10319000B0FBF1F01949401E4860FEF70BFFFEF747
:1031A000D5FE1748016841F48001016000680022E3
:1031B000114600F4800000903820FEF76DF93820A9
:1031C000FEF75EF9FEF728FEFEF768FEFEF792FEB8
:1031D000FEF72EFF0B48FDF709FE0A484838FDF7B9
:1031E00005FE094942F21072A1F5D270FDF714FCF8
:1031F000FEE7000014000020005A620200000020D8
:1032000030380240A8000020BC0100200FB410B5E7
:1032100003A9029800F004F810BC5DF814FB00004C
:1032200000B5B3B00A4601466846FFF729FB0028FF
:1032300009DD6846FDF715F882B204486FF07F4358
:103240006946FEF78DFD33B000BD0000300100205F
:103250000006101600061016000000000000000016
:10326000010203040607080900000000010203042C
:10327000903200080000002018000000A428000878
:10328000A83200081800002048A20000B428000856
:10329000000000000000000001000000100000001D
:0832A000000000000024F4000E
:04000005080001C925
:00000001FF
