:020000040800F2
:1000000058060020DD0100083F1F0008931D00086E
:100010003D1F0008850800086D250008000000004D
:10002000000000000000000000000000651F000844
:100030008708000800000000631F0008671F000811
:10004000F7010008F7010008F7010008F7010008B0
:10005000F7010008F7010008F7010008F7010008A0
:10006000F7010008F7010008F7010008F701000890
:10007000F7010008F7010008F7010008F701000880
:10008000F7010008F7010008F7010008F701000870
:10009000F7010008F7010008F7010008F701000860
:1000A000F7010008F7010008F7010008F701000850
:1000B000F7010008F7010008F7010008F701000840
:1000C000F7010008F7010008F7010008F701000830
:1000D000F7010008F7010008F7010008F701000820
:1000E000F7010008F7010008F7010008F701000810
:1000F000F7010008F7010008F7010008F701000800
:10010000F7010008F7010008F7010008F7010008EF
:10011000F7010008F7010008F7010008F7010008DF
:10012000F7010008F7010008F7010008F7010008CF
:10013000F7010008F7010008F7010008F7010008BF
:10014000F7010008F7010008F7010008F7010008AF
:10015000F7010008F7010008F7010008F70100089F
:10016000F7010008F7010008F7010008F70100088F
:10017000F7010008F7010008F7010008000000007F
:10018000F7010008F7010008F7010008F70100086F
:10019000F7010008F7010008F7010008F70100085F
:1001A000F7010008F7010008F7010008F70100084F
:1001B000F7010008F7010008F7010008F70100083F
:1001C000F7010008F7010008DFF80CD000F03EFA54
:1001D00000480047712E0008580600200648804756
:1001E00006480047FEE7FEE7FEE7FEE7FEE7FEE71C
:1001F000FEE7FEE7FEE7FEE721200008C901000850
:100200002DE9F05F0546002092469B46884606464B
:10021000814640241BE0284641464746224600F0DE
:100220004CF853465A46C01A914110D3114618460D
:10023000224600F033F82D1A67EB01084F4622469C
:100240000120002100F02AF817EB00094E41201E82
:10025000A4F10104DFDC484631462A464346BDE8A6
:10026000F09F421C10F8011B0029FBD1801A704737
:1002700030B50B46014600202022012409E021FA76
:1002800002F59D4205D303FA02F5491B04FA02F573
:100290002844151EA2F10102F1DC30BD202A04DB46
:1002A000203A00FA02F1002070479140C2F1200389
:1002B00020FA03F3194390407047202A04DB203AC8
:1002C00021FA02F00021704721FA02F3D040C2F176
:1002D000200291400843194670472DE9FE4F8046A1
:1002E00081EA0300C00F0C46009021F0004123F08A
:1002F0000045B8EB0200A94105D240462146904690
:100300001C460B46024623F00040104347D0270D01
:10031000C7F30A00C3F30A510290401A0190402823
:100320006BDAC3F3130040F4801B0098924620B1AF
:100330000023D2EB030A63EB0B0B01985946C0F183
:1003400040025046FFF7AAFF06460D465046594662
:10035000019A00F08DF910EB08006141002487EA52
:10036000115284EAE7731A4340D0009A62B3019AAB
:10037000012A4FEA075215DC001B61EB02014FF026
:10038000004202EA0752CDE90042001C41F580110B
:1003900032462B4600F08DF903B0BDE8F08F4046A1
:1003A0002146F9E7001B61EB0201001C41F58013B7
:1003B00000185B412018A2F5001747EB030140EA43
:1003C000D570B6196D4111E06D084FEA360645EA61
:1003D000C0754FEA0752001B61EB0201001C41F59A
:1003E000801149084FEA30000019514132462B462E
:1003F00003B0BDE8F04F00F04DB900980122400075
:100400000023D0EB020263EBE073009821464FEA31
:10041000E074B8EB000061EB0401E9E783F000430E
:100420005BE781F0004158E72DE9FE4F81EA0304C4
:1004300004F0004421F0004100944FF0000B23F041
:10044000004350EA01045ED052EA03045BD0C3F3D8
:100450000A54C1F30A552C44A4F2F3340194A0FBCE
:100460000254C1F3130141F48011C3F3130343F4A5
:10047000801301FB024400FB034E840A970A44EAFE
:10048000815447EA8357A4FB076802958D0A05FB50
:1004900007854FEA932C04FB0C542705029D4FEA75
:1004A000065847EA1637B5EB08056EEB070C870EC2
:1004B000920E47EA811742EA8312A7FB0201B6EBCC
:1004C0000B0164EB00042B0D43EA0C335E1844EB84
:1004D0001C50DA465146E7FB0201C5F313044FEA0C
:1004E0000B3343EA14534FEA0432019C43EA0603F8
:1004F000A4F10C040294009CCDE900B400F0D9F8FA
:1005000003B0BDE8F08F00200146F9E72DE9F04D7A
:1005100081EA030404F0004B21F0004514464FF03B
:10052000000A23F0004150EA050220D054EA0102FB
:100530001DD0C5F30A570246C5F31303C1F31300D8
:10054000C1F30A5640F4801543F48013A7EB060864
:10055000101BD64608F2FD3873EB050002D308F1F4
:10056000010801E092185B41B8F1000F03DA0020A6
:100570000146BDE8F08D00204FF480110646844608
:100580000EE0171B73EB050705D3121B63EB050386
:1005900006434CEA010C49084FEA300092185B41CF
:1005A00050EA0107EDD152EA030012D082EA0400BA
:1005B00083EA0501084305D0101BAB4106D2012296
:1005C000002306E000224FF0004302E06FF001023A
:1005D00053101AEB06004CEB085110EB0A0041EBEC
:1005E0000B01BDE8F04D00F055B8C1F30A52C1F35C
:1005F000130140F2FF3341F480119A4202DA0020E5
:100600000146704740F233439A42A2F2334202DC81
:100610005242FFF752BEFFF741BE000030B5041E44
:1006200071F1000404DB4FF00044404264EB01012F
:10063000141E73F1000405DB1C464FF000435242C8
:1006400063EB0403994208BF904230BD064C074D4E
:1006500006E0E06840F0010394E807009847103492
:10066000AC42F6D3FFF7B4FD4C2F00086C2F000806
:10067000202A06DBCB17203A41FA02F043EAE07366
:1006800006E041FA02F3D040C2F120029140084353
:100690001946704710B5141E73F1000408DA401CA7
:1006A00041F1000192185B411A4301D120F0010091
:1006B00010BD2DE9F04D92469B4611B1B1FA81F281
:1006C00002E0B0FA80F220329046FFF7E7FD0446E0
:1006D0000F4640EA0A0041EA0B0153465A460843D6
:1006E00013D0114653EA010019D0C8F14002504618
:1006F000FFF7E3FD05460E46504659464246FFF7D2
:10070000CDFD084305D0012004E020463946BDE870
:10071000F08D0020054346EAE0762C4337430A98E3
:100720006305E40AA0EB08000022FD0A44EA4754EE
:100730000A3002D500200146E9E701051019694198
:10074000DDE9084500196941BDE8F04DA2E7000068
:1007500049496FF0706210B5D1F8043323F4403387
:10076000C1F80433D1F8043344682343C1F8043397
:1007700001684B6823F480734B60016803694C681F
:1007800044EA03234B6001684B6823F040734B60DD
:10079000016884684B6823434B6001688B6823F4CD
:1007A00000638B600168C4688B6823438B60816A37
:1007B000D14201688A6822F070628A6001680DD0B7
:1007C000836A8A681A438A6001688A6822F0405204
:1007D0008A600168C36A8A681A4302E08A6822F064
:1007E00040528A6001688A6822F002028A600168C9
:1007F00082698B6843EA42028A60016A00290168C3
:1008000011D01E4A4B6843F400634B6001684B688B
:1008100023F460434B600168446A4B6802EB443246
:1008200013434B6003E04A6822F400624A600168A7
:10083000134BCA6A22F47002CA620168848BCA6AC6
:1008400003EB04531A43CA6201688A6822F40072F7
:100850008A600168026B8B6843EA42228A60016801
:100860008A6822F480628A60016840698A6842EA84
:100870008020886010BD00000020014000E0FFFFE4
:100880000000F0FFFEE77047F8B50025009590F8EE
:100890003C20012A18D0012280F83C200A68072356
:1008A0004E4C0668092A1AD90A3A02EB4207F26846
:1008B000BB409A43F2600E680268A64206D10B7AEA
:1008C000D66846EA036308E00220F8BD0A3E8B685A
:1008D000D76806EB4606B3403B43D3600EE002EB1D
:1008E00042073269BB409A43326103680E788A68D6
:1008F0001F6906EB4606B2403A431A614A681F2355
:10090000072A13D20668521E02EB8207726BBB40A5
:100910009A43726303680E790A88761E5F6B92B2FF
:1009200006EB8606B2403A435A6327E006680D2A72
:1009300012D2D21F02EB8207326BBB409A43326362
:1009400002680E790B88F61F176B9BB206EB8606C2
:10095000B3403B43136311E00D3A02EB8207F26AA6
:10096000BB409A43F26202680E790B880D3ED76A4B
:100970009BB206EB8606B3403B43D362184A03683A
:10098000934208D10B68122B05D1D2F8043343F4FB
:100990008003C2F80433036893421AD10B68A34260
:1009A00001D0112B15D1D2F8043343F40003C2F85F
:1009B00004330968A1420CD10A490B4A0968B1FB0A
:1009C000F2F101EB8101490000E0491E009100298C
:1009D000FBD180F83C500020F8BD00001200001050
:1009E000002001400C00002040420F000068C06C55
:1009F000704770B504004FF0000503D0206C00264E
:100A000010B107E0012070BD6664204684F83C60A8
:100A100000F01AF8206CC00610D4206C20F4885026
:100A200040F0020020642046FFF792FE6664206CCE
:100A300020F0020040F00100206400E0012584F86D
:100A40003C60284670BD000000B5006887B00B49C7
:100A5000884211D10A48016841F480710160006840
:100A60000321002200F48070059001208DE807002A
:100A70000448694600F02EF907B000BD002001408F
:100A8000443802400000024018B50022009290F85D
:100A90003C10012907D0012180F83C1001688B68C7
:100AA000DB0702D011E0022018BD8C68214B44F016
:100AB00001048C6020490968B1FBF3F101EB4101AD
:100AC00000E0491E00910029FBD101688B68DB071B
:100AD0002DD0036C40F20164A34343F4807303649C
:100AE0004B685B0505D5036C23F4005343F4805336
:100AF0000364036CDB0404D5436C23F006034364F6
:100B000000E042646FF022040C4B80F83C200C6043
:100B1000D3F804130068C90601D0984207D1816850
:100B200011F0405F03D1816841F080418160002075
:100B300018BD000040420F000C00002000200140C2
:100B400018B50021009190F83C20012A07D001221D
:100B500080F83C2002689368DB0702D011E0022095
:100B600018BD9468234B44F001049460224A126833
:100B7000B2FBF3F202EB420200E0521E0092002AA6
:100B8000FBD102689368DB0732D0036C40F201644A
:100B9000A34343F48073036453685B0505D5036C7A
:100BA00023F4005343F480530364036CDB0404D543
:100BB000436C23F00603436400E041646FF02203BA
:100BC00080F83C100D4C0E491360026853682343B3
:100BD0005360D1F804230068D20601D0884207D1BF
:100BE000816811F0405F03D1816841F080418160EC
:100BF000002018BD40420F000C000020200000041F
:100C00000020014070B54379012B1AD001244471B2
:100C100002230371056840F6FE76D1E900310B43EB
:100C200029689640B1439340C0260B432B6001686E
:100C300096400A68B2430A60002304714371184663
:100C400070BD022070BD70B5040003D0207900256E
:100C500010B105E0012070BD2046657100F008F874
:100C600002212171012025612071002070BD00004A
:100C700000B5006887B00B49884211D10A48016865
:100C800041F00051016000680321002200F0005093
:100C9000059010208DE807000448694600F01AF816
:100CA00007B000BD00740040403802400000024020
:100CB00070B5044600F000F90546601C02D00448F7
:100CC0000078044400F0F8F8401BA042FAD370BD4D
:100CD000000000202DE9F84FDFF89CE100224FF0E2
:100CE00001084FF0030B4FF00F0A00BF0B6808FA22
:100CF00002F42340A34271D14D68022D01D0122D80
:100D00000FD1D5080E69570700EB8505A9462D6A56
:100D1000FF0E0AFA07FCBE4025EA0C052E43C9F86F
:100D200020600F79550006680BFA05FC07F00307F1
:100D300026EA0C06AF40374307604E68012E05D007
:100D4000022E03D0112E01D0122E0ED18668CF684C
:100D500026EA0C06AF403743876046680F79A64302
:100D6000C7F30017974037434760C4688E6824EA8A
:100D70000C04AE402643C6604C68E40075D53F4C79
:100D8000256845F480452560246822F00306950710
:100D900004F4804400943A4C2D0F2644D6F80848B9
:100DA000DFF8E0C00AFA05F7604524EA070401D13C
:100DB00000272EE0344FB84201D1012729E0334FFC
:100DC000B84201D1022724E0314FB84201D10327B4
:100DD0001FE0304FB84202D104271AE045E02E4F01
:100DE000B84201D1052714E02C4FB84201D10627A3
:100DF0000FE02B4FB84201D107270AE0294FB84234
:100E000001D1082705E0284FB84201D1092700E0A9
:100E10000A27AF4027437546C6F808784E68DEF8C3
:100E20000040F60324EA030400D51C43124E2C6054
:100E3000361D4D683468AD0324EA030400D51C4315
:100E40000D4F346008374D683C68ED0224EA030416
:100E500000D51C43084D3C600C354E682C68B6022A
:100E600024EA030400D51C432C60521C102AFFF412
:100E70003DAFBDE8F88F0000003C0140443802401F
:100E8000003001400000024000040240000802401F
:100E9000000C024000100240001402400018024002
:100EA000001C024000200240002402400AB181617F
:100EB00070470904FBE700000148806870470000A4
:100EC0000000002002488168027811448160704768
:100ED00000000020032010B500F08AF8002000F088
:100EE00005F800F023F8002010BD000070B50D4D8E
:100EF00004464FF47A700C4A29781268B0FBF1F07E
:100F0000B2FBF0F000F099FD48B9102C07D2002296
:100F10002146501E00F04CF800206C6070BD01208E
:100F200070BD0000000000200C0000201F4808B524
:100F3000016841F080510160006800F0805000902D
:100F40001A48001D016841F480410160006800F406
:100F500080400090032000F04BF800226FF00B005F
:100F6000114600F025F800226FF00A00114600F04B
:100F70001FF800226FF00900114600F019F8002256
:100F8000501F114600F014F80022101F114600F007
:100F90000FF80022901E114600F00AF80022BDE86A
:100FA0000840501E114600F003B8000040380240CF
:100FB0000E4BF0B41B680D46C3F30223C3F10706C2
:100FC000042E00D90426191D072901D2002300E0B0
:100FD000DB1E012404FA06F19C40491E2940641ED0
:100FE000994014402143F0BC00F0AABF0CED00E092
:100FF000064900F0070210B54FF6FF040868044BDD
:10100000204040EA02201843086010BD0CED00E0CB
:101010000000FA052DE9F84F04460078DFF8249423
:101020004FF000063746C0070ED0D9F8001021F463
:101030000001C9F80010D9F80010626B1143C9F81B
:101040000010606B00B90126FE4D20688435000356
:101050000ED5E16B286820F4401008432860E06B4F
:10106000B0F5801F01D010B102E0012600E0012799
:1010700020684FF4800BC0020CD5216C286820F446
:10108000400008432860206C584501D1012601E04A
:1010900000B901272068C10100D50126800666D568
:1010A000E8483830016841F0805101600068DFF89D
:1010B00098A300F080500090DAF8001041F480719D
:1010C000CAF80010FFF7F8FE804605E0FFF7F4FECF
:1010D000A0EB080064287DD8DAF80000C005F5D53B
:1010E000DFF8608308F16808D8F8000010F4407059
:1010F0002AD0218E01F44071814225D0D8F8001009
:10110000D8F8002021F4407142F48032C8F8002061
:10111000D8F8002022F48032C8F80020C8F8001067
:10112000D8F80000C0070FD0FFF7C6FE824607E0E0
:10113000FFF7C2FEA0EB0A0141F288308142CAD813
:10114000D8F800008007F3D5206BC0F301210329F4
:101150007ED0D9F8001021F4F811C9F80010228EC1
:10116000D8F80010C2F30B021143C8F80010207821
:10117000C00607D5286820F0807028602868A16B19
:10118000084328602188AF488830490405D5626E3D
:10119000016821F44031114301602188090405D51B
:1011A000A26E016821F44021114301602168C90346
:1011B00005D5E26E016821F44011114301602168F8
:1011C000890305D5226F016821F4400111430160B4
:1011D000217800E018E1490605D5626C016821F02C
:1011E0000301114301602178090605D5A26C01684D
:1011F00021F00C01114301602188C90505D5E26C7D
:10120000016821F03001114301602188890505D56D
:10121000226D016821F0C001114301602188490558
:1012200005D5626D016821F4407111430160218888
:10123000090505D5A26D016821F4406111430160E3
:101240002188C90407D5E26D016821F4405100E00E
:1012500041E0114301602188890405D5226E0168AF
:1012600021F44041114301602168490205D5A26F74
:10127000016821F080611143016021684FF0006A2C
:10128000890209D5E26F016821F000611143016014
:10129000E16F514500D1012721680A0700D50127D8
:1012A000490305D5626F016821F040711143016067
:1012B0002168090206D5D4F88020016821F0805108
:1012C00011430160DFF88491012E0ED02068B0F147
:1012D000007F0AD08FE05E4AD9F80030104023F436
:1012E000F8120243C9F8002039E7D9F800004E4649
:1012F00020F08060C9F80000FFF7DEFD804605E0C1
:10130000FFF7DAFDA0EB080064287DD83068000103
:10131000F6D421784B487C30C90712D0616B81B973
:10132000237A62680168D0F800C09201C1F30141DC
:1013300042EA0142CCF3036142EA016141EA0371EE
:10134000016021680A0303D5E26BB2F5801F04D067
:10135000C9021AD5216C594517D16368016894F800
:101360000CC002689B01C1F3014143EA0141C2F391
:10137000027241EA0C6141EA027101602968626A05
:1013800021F01F01521E114329602168C90110D5A7
:10139000238A62680168D0F800C09201C1F303613A
:1013A00042EA034242EA0162CCF3027142EA01716D
:1013B0000160216889010CD56168228A237B94F839
:1013C00008C0890141EA024141EA036141EA0C7126
:1013D00001603168B04641F080613160FFF76CFD1B
:1013E000064604E0FFF768FD801B64280CD8D8F897
:1013F00000000001F6D56FB3D9F800004E4620F08A
:101400008050C9F8000000E079E0FFF755FD07467D
:1014100005E000BFFFF750FDC01B64286FD830689F
:10142000C0438000F6D50748216880300A0301D503
:10143000E26B1AB1C90225D5216C19BB6369016839
:10144000277E08E008380240007000400038024063
:10145000FFFCFF0F5AE00268C1F301419B0143EA20
:101460000143C2F3027143EA076242EA017101607B
:1014700029686FF0FF03A26A21F4F85103EB0222FE
:10148000114329602168890212D5E16F51450FD1BE
:10149000238C6269016807689201C1F3036142EA23
:1014A000034242EA0162C7F3027142EA017101603C
:1014B0002178090716D561690268D0F800C08B0150
:1014C000277FC2F30362CCF3014143EA014141EAC1
:1014D000026141EA077101602868E16A20F4403046
:1014E00008432860306840F080503060FFF7E4FC2B
:1014F000044607E0FFF7E0FC001B642802D9032044
:10150000BDE8F88F3068C0438000F3D40020F7E7CF
:101510002DE9F04705000F4663D0444E306800F0D7
:101520000F00B84209D2306820F00F003843306015
:10153000306800F00F00B84253D128683C4C810756
:1015400012D5400703D5206840F4E0502060287889
:10155000000703D5206840F460402060A968206837
:1015600020F0F000084320602878C0072AD03049D6
:1015700068680839012810D00968022810D0890746
:1015800000292EDA216821F0030101432160FFF7D1
:1015900093FC804641F288390DE009688903EFE742
:1015A0008901EDE7FFF788FCA0EB0801494502D966
:1015B0000320BDE8F0876868216801F00C01B1EBF9
:1015C000800FEFD1306800F00F00B8420BD93068BF
:1015D00020F00F0038433060306800F00F00B84250
:1015E00001D00120E5E72878400705D5E9682068A3
:1015F00020F4E050084320602878000706D52869C9
:10160000216821F4604141EAC000206000F03CF80C
:101610002168084AC1F30311515CC84006490860BB
:101620000020FFF763FC0020C3E70000003C0240FD
:1016300008380240342F00080C00002001480068E0
:10164000704700000C000020044905480968006844
:10165000044AC1F38221515CC840704708380240F7
:101660000C000020442F0008044905480968006860
:10167000044AC1F34231515CC84070470838024007
:101680000C000020442F0008154910B515480968C2
:1016900011F00C0213D04110042A0FD0082A0ED1E9
:1016A0000F4C241F2268236802F03F025B0207D51B
:1016B0002068C0F38810A0FB010106E0084610BDB9
:1016C0002168C1F38811A1FB00010023FEF798FDFA
:1016D0002168C1F30141491C4900B0FBF1F010BD84
:1016E000083802400024F4002DE9F84F05004FF0BF
:1016F00000076ED02878DFF81C93A9F1040AC00710
:10170000AAF104044CD0D9F800104846C1F3810175
:10171000012908D00068C0F3810002280AD1DAF854
:101720000000400206D52068800339D5686800288B
:10173000DFD035E06868B0F5803F0BD010B1B0F570
:10174000A02F11D0206820F480302060206820F481
:10175000802002E0206840F480302060686890B10A
:10176000FFF7AAFB06460AE0206840F480202060CC
:10177000F0E700BFFFF7A0FB801B642872D8206849
:101780008003F7D50CE0FFF797FB064605E000BFA6
:10179000FFF792FB801B6428F0D820688003F7D401
:1017A0002878800742D5D9F80010484611F00C0F70
:1017B00008D00068C0F3810002280BD1DAF80000DD
:1017C000400207D42068800718D5E868012800D1B6
:1017D00014E01CE1E8680028206817D040F0010000
:1017E0002060FFF769FB064605E000BFFFF764FBDA
:1017F000801B0228C2D820688007F7D52869216895
:1018000021F0F80141EAC00020600FE020F0010063
:101810002060FFF751FB064605E000BFFFF74CFBD9
:10182000801B02281ED820688007F7D4287800077C
:1018300029D5784869696C3000298046016812D042
:1018400041F001010160FFF737FB064605E000BFEC
:10185000FFF732FB801B022804D8D8F8000080076D
:10186000F6D510E089E021F001010160FFF724FBCB
:10187000064604E0FFF720FB801B02287DD8D8F83D
:1018800000008007F6D4287840076BD5DFF8848104
:1018900008F13808D8F80000C0000BD4D8F80010C0
:1018A00041F08051C8F80010D8F80000012700F07E
:1018B0008050009058480168C90512D401688346D9
:1018C00041F480710160FFF7F7FA064605E000BFBA
:1018D000FFF7F2FA801B64284FD8DBF80000C00540
:1018E000F6D54C4EA868683601280AD008B10528FC
:1018F00011D0306820F001003060306820F0040022
:1019000002E0306840F001003060A868A0B1FFF745
:10191000D3FA83460CE0306840F004003060F0E712
:10192000FFF7CAFAA0EB0B0141F28830814266D87A
:1019300030688007F4D50EE0FFF7BEFA834607E073
:10194000FFF7BAFAA0EB0B0141F28830814256D87A
:1019500030688007F4D42FB1D8F8001021F08051FE
:10196000C8F80010A869C8B3D9F80010C1F3810104
:1019700002294CD00228206800E040E020F080706E
:10198000206003D0FFF798FA05463BE0FFF794FA92
:10199000064604E0FFF790FA801B02282FD8206843
:1019A0008001F7D4D5E90962D5E907011B4B570837
:1019B00095F82C20084303EB074343EA86110843BC
:1019C00040EA026040F00050CAF80000206840F091
:1019D00080702060FFF770FA054606E015E000BF52
:1019E000FFF76AFA401B022809D820688001F7D562
:1019F0000BE000BFFFF760FA401B022802D903206A
:101A0000BDE8F88F20688001F4D40020F8E70120B9
:101A1000F6E7000008380240007000400000FFFFB9
:101A200004284FF0E020016903D021F00401016196
:101A3000704741F00401FAE77047401EB0F1807F23
:101A400010B501D3012010BD4FF0E02460610F21DB
:101A5000601700F075FA0020A0610721216110BD18
:101A600010B5FFF7E9FF10BD70B590F83C20012AD2
:101A70001FD0012280F83C2002680F4C5368A2421C
:101A8000956802D00D4CA24203D14C6823F4700338
:101A900023430C688968002623F070031C435460BC
:101AA00025F0800502682943916080F83C6030464B
:101AB00070BD022070BD0000000001400004014024
:101AC00010B5040003D094F83D0010B107E00120E8
:101AD00010BD002084F83C00204600F00DF80220E4
:101AE00084F83D002068211D00F0C4FA012084F82C
:101AF0003D00002010BD000008B50068094988427B
:101B000001D1094804E0B0F1804F09D10648001F17
:101B1000016841F001010160006800F001000090DF
:101B200008BD0000000001404438024070B5044682
:101B300090F83C00012817D03A4E012584F83C501B
:101B4000022084F83D0022689068304020F47F40F5
:101B500090600868502839D00DDC20285BD005DC67
:101B600098B3102843D153E0022070BD302855D0DF
:101B700040283CD141E0602830D070280CD0B0F52E
:101B8000805F03D0B0F5005F31D112E02068254AB4
:101B900070328168114016E04A682068D1E902136A
:101BA00000F0CEFA21688868304040F07700886005
:101BB0001DE04A682068D1E9021300F0C1FA2068EC
:101BC000816841F48041816011E01EE0CA68496883
:101BD000206800F0C6FA2068502106E0CA6849680B
:101BE000206800F0CFFA2068602100F0B2FA0020EF
:101BF00084F83D5084F83C0070BDCA68496820688C
:101C000000F0AFFA20684021EFE720680021ECE700
:101C100020681021E9E720682021E6E720683021CC
:101C2000E3E7000088FFFEFF10B5040003D094F83E
:101C3000690010B107E0012010BD002084F86800A1
:101C4000204600F027F8242084F869002068016805
:101C500021F001010160204600F02AFB0128EBD0B1
:101C6000606A10B1204600F09FFA2068416821F4B4
:101C7000904141602068816821F02A0181602068DC
:101C8000016841F0010101602046BDE8104000F00C
:101C9000EFBA000010B5006886B00D49884214D133
:101CA0000C48016841F01001016000680221002227
:101CB00000F010000590032307244FF4C0608DE866
:101CC0001F0005486946FFF705F806B010BD000083
:101CD0000010014044380240000002402DE9F84362
:101CE000044690F869001F4616460D4620284ED13E
:101CF000C5B1BEB194F86800012848D0012284F82B
:101D0000682021214FF00008C4F86C8084F8691025
:101D10005034FFF7D1F8268081466680503C4FF45E
:101D2000805619E00120BDE8F88300BFB4F85200E6
:101D3000401EA4F8520000224B4680212046009706
:101D400000F0E2FBA0B9A068B04201D1206988B1DF
:101D500015F8010B21688862B4F852000028E5D11B
:101D600000224B4640212046009700F0CDFB38B1C1
:101D70000320D8E735F8020B2168C0F30800EAE732
:101D8000202184F86910002084F86880CBE70220C5
:101D9000C9E7FEE7154830B585B0016841F48071A8
:101DA0000160006800241249012500F4807004904D
:101DB0001048016044608460046184610E490462DB
:101DC000C0E90A14C56105634561C460FEF711FEF0
:101DD00000B1FEE707486946CDE900450294FEF7E9
:101DE00053FD002800D0FEE705B030BD4438024066
:101DF00000200140100000200100000F174830B5FE
:101E000087B0016841F080010160016801F0800144
:101E10000591016841F001010160016801F00101D3
:101E20000591016841F00201016000684CF28104F3
:101E30000B4D002200F00200214605902846FFF7D6
:101E400035F8002100940120CDE9010128460391D5
:101E50006946FEF73FFF07B030BD00003038024052
:101E600000040240134810B50024114988B0C0E9AD
:101E700000148460C460046144618461FFF720FE43
:101E800000B1FEE74FF4805003900A4803A9FFF722
:101E90004DFE00B1FEE707486946009401940294A4
:101EA000FFF7E2FD002800D0FEE708B010BD0000FB
:101EB000000001406C00002011484FF0804110B537
:101EC000002488B0C0E900148460C46004618461A7
:101ED000FFF7F6FD00B1FEE74FF48050039008488D
:101EE00003A9FFF723FE00B1FEE705486946009409
:101EF0000294FFF7B9FD002800D0FEE708B010BD3E
:101F0000AC0000200C48002110B50A4C0C224FF404
:101F100016530460C0E90131C160C0E90412816157
:101F2000C16101624162FFF77FFE002800D0FEE739
:101F300010BD000000100140EC000020FEE77047DB
:101F4000090700284FEA116106DA00F00F0000F1DE
:101F5000E02080F8141D704700F1E02080F80014A4
:101F600070477047704710B5FEF7ACFFBDE81040F2
:101F7000FFF776BD284870B5B4B0016841F08051D4
:101F80000160006800F0805032902448016821F41C
:101F9000404141F48041016000680225042300F4BF
:101FA0004040329001204824820501040326CDE9F7
:101FB0002752CDE9210129A921A881E87800FFF75E
:101FC00093FB00B1FEE74FF4805100240F20CDE9D0
:101FD0002F4131940221CDE92D052DA8FFF798FA64
:101FE00000B1FEE74020119400906846FFF712F818
:101FF00000B1FEE7FFF722FB4FF47A71B0FBF1F07E
:10200000FFF71BFD0420FFF70BFD0022501E1146B9
:10201000FEF7CEFF34B070BD403802400070004083
:10202000104A30B51048146800210F4B44F4700476
:102030001460083305680D4A0D4C45F00105056034
:1020400019600368051D1340074A03600C322C60B9
:102050000568E305034C25F480250560803C11608C
:10206000236030BD88ED00E000380240FFFFF6FE3F
:1020700010300024F0B5274B4FF0804E264D0268FB
:102080009842264E264F274C09D0704507D0A842CB
:1020900005D0B04203D0B84201D0A04205D1D1F85A
:1020A00004C022F070024CEA020298421BD0704534
:1020B00019D0A84217D0B04215D0B84213D0A042D0
:1020C00011D0194DA8420ED0184DA8420BD0184D72
:1020D000A84208D0174DA84205D0174DA84202D0FB
:1020E000164DA84203D1CD6822F440722A434D69AF
:1020F00022F080022A43026098428A68C2620A681B
:10210000826201D0A04201D10969016301214161CC
:10211000F0BD000000000140000400400008004045
:10212000000C004000040140004001400044014018
:102130000048014000180040001C00400020004002
:1021400042EA032283680A4323F47F410A43826000
:102150007047826822F070020A4342F007018160F2
:10216000704710B5036A046A23F00A0324F00104DF
:10217000046284690B4324F0F00141EA0211816199
:10218000036210BD10B5036A23F010030362836974
:10219000046A23F4704324F0A00443EA023282610B
:1021A00044EA0111016210BD90F82410C90706D05D
:1021B0000168836A4A6822F400321A434A6090F840
:1021C0002410890706D50168C36A4A6822F4803260
:1021D0001A434A6090F82410490706D50168036B3A
:1021E0004A6822F480221A434A6090F824100907B2
:1021F00006D50168436B4A6822F400421A434A60DC
:1022000090F82410C90606D50168836B8A6822F409
:1022100080521A438A6090F82410890606D5016816
:10222000C36B8A6822F400521A438A6090F8241023
:10223000490611D50168036C4A6822F480121A43DA
:102240004A60016CB1F5801F06D10168436C4A6891
:1022500022F4C0021A434A6090F82410090606D5F9
:102260000168826C486820F4002010434860704781
:1022700038B500250446C566FEF71EFE03462068F5
:10228000006800070BD56FF07E40009000222046CA
:102290004FF4001100F038F908B1032038BD2020B8
:1022A00084F8690084F8685084F86A00002038BD1A
:1022B0002DE9F04704468068874B884F2668D4E9AB
:1022C0000415E2690843D6F800C010211543002226
:1022D000284315460CEA030C814B4CEA000CC6F867
:1022E00000C04FF400492068D4F80CC0466826F4BA
:1022F000405646EA0C0646602668D4F82080A0695D
:10230000D6F808C040EA08002CF4306C4CEA000C07
:10231000C6F808C02068B8420AD11B6813F003034E
:1023200052D0012B7AD0022B76D0032B79D177E0D3
:102330006C4EB0420AD11B6813F00C036AD0042B18
:102340006CD0082B68D00C2B6BD169E0664EB04284
:102350000AD11B6813F030035CD0102B5ED0202B09
:102360005AD0302B5DD15BE0604EB0420AD11B6881
:1023700013F0C0034ED0402B50D0802B4CD0C02B3C
:102380004FD14DE05A4EB0420DD11B6813F440734B
:1023900040D0B3F5807F41D0B3F5007F3CD0B3F59A
:1023A000407F3ED13CE0534EB0420FD11B6813F446
:1023B000406309D0B3F5806F30D0B3F5006F2BD0F8
:1023C000B3F5406F2DD12BE001212AE04A4EB042F7
:1023D0000DD11B6813F440531CD0B3F5805F1DD0A2
:1023E000B3F5005F18D0B3F5405F1AD118E0434E43
:1023F000B04216D11B6813F440430BD0B3F5804FA5
:102400000CD04B4508D0B3F5404F0AD108E005E0A9
:1024100002E0FFE7002104E0022102E0042100E0E5
:102420000821E6694E452AD109291FD2DFE801F0CB
:102430000508141E171E1E1E1A00FFF705F901E0FD
:10244000FFF712F90146D4F80400490001EB5001EE
:10245000B1FBF0F082B20AE029496068F6E7FFF7C5
:1024600013F9EFE760684FF48031EFE70125216849
:1024700022F00F00C2F342021043C86028E009298D
:1024800025D2DFE801F005080B24102424241C00C9
:10249000FFF7DAF809E0FFF7E7F806E06168194AA4
:1024A00002EB51020EE0FFF7EFF80146D4E90020FD
:1024B00001EB5001B1FBF0F080B2D06008E0616840
:1024C00009EB5102B2FBF1F189B2C16000E00125D4
:1024D0002846BDE8F0870000F369FFEF00100140D7
:1024E000903802400044004000480040004C00404A
:1024F000005000400014014000780040007C004083
:102500000048E8010024F4002DE9F0419846174600
:102510000E460446069D1DE0681C1BD02DB1FEF73B
:10252000CBFCA0EB0800A84214D321682020002295
:102530000B6823F4D0730B6021688B6823F00103D0
:102540008B6084F8690084F86A00032084F86820AE
:10255000BDE8F0812068C06936EA000004D00020A0
:10256000B842D9D00020F3E70120F9E7FEE70000E8
:1025700037B514460846064B6A46214600F0DCF89B
:1025800004466946002000F06EFC20463EBD000077
:10259000672E000802E008C8121F08C1002AFAD1FD
:1025A00070477047002001E001C1121F002AFBD1D3
:1025B000704700002DE9FF5F82B00021DDE90430A3
:1025C000020DDDF840B0034318D044F61050A2F2DB
:1025D000FF3242431514119801281FD0A5EB0B00C0
:1025E000401C5FEA000A4FF000064E4FDFF83891BA
:1025F000B046504615D5CAF1000413E011980124E5
:102600004AA3012801D16FEA0B010298119AC0E98F
:102610000031C0E9024206B0BDE8F09FCBF10000F6
:10262000DFE704460021404A491842EB0450CDE957
:10263000001012E0E00707D032463B4640464946CC
:10264000FDF7F2FE8046894632463B461046194663
:10265000FDF7EAFE06460F466410002CEAD1DDE9DC
:102660000401DDE90023BAF1000F06DAFDF7DCFE14
:1026700042464B46FDF7D8FE05E0FDF747FF4246D0
:102680004B46FDF743FF04460E460022284BFDF75C
:10269000C5FF03D84FF0FF30014607E00022254B6D
:1026A00020463146FDF719FEFDF79FFF102409E093
:1026B000002C0ADB0A220023FDF7A2FD039B303227
:1026C0001A55641E50EA0102F2D1641C039AC4F147
:1026D00011031444119A012A03D0012208430DD199
:1026E0000AE0084304D000204FF0110B119072E76C
:1026F000A3EB0B056D1E0DE05B4504DD4FF0000202
:1027000005F1010504E003DA4FF00002A5F101052F
:10271000002AECD002981199C0E90231C0E90045C5
:1027200079E70000000014400000F03F3000000096
:102730000000F0430000E03F2DE9FF4F95B09B46BD
:102740008946064600250FE2252877D10024274632
:10275000F84A0121059400E0044316F8013F203BAC
:1027600001FA03F01042F7D130782A2811D06FF027
:102770002F033078A0F13002092A16D8059A44F0C8
:10278000020402EB820203EB42021044761C059025
:10279000EFE759F8042B0592002A03DA504244F47B
:1027A0000054059044F00204761C30782E2816D18F
:1027B00016F8010F44F004042A280DD06FF02F0200
:1027C0003078A0F13003092B09D807EB870302EB1F
:1027D0004303C718761CF3E759F8047B761C30785E
:1027E0006C280FD006DC4C2817D068280DD06A283A
:1027F00014D104E0742810D07A280FD10DE044F4ED
:1028000000140AE044F4801401E044F440147278A7
:10281000824202D104F58014761C761C307866283A
:102820000BD013DC582877D009DC002875D0452858
:10283000F6D04628F4D047281AD19DE118E0632845
:1028400035D0642879D0652812D195E1702873D0ED
:1028500008DC6728F1D069286FD06E280DD06F286A
:1028600006D1B5E073282CD0752875D0782874D09F
:102870005A46179990476D1C75E1C4F3025002281F
:1028800009D003280DD0D9F8001004280DD00D6010
:1028900009F1040967E1D9F80010EA17C1E900520B
:1028A000F6E7D9F800100D80F2E70D70F0E719F89F
:1028B000041B8DF8001000208DF80100EA4601206D
:1028C00003E059F804AB4FF0FF3061074FF000010F
:1028D00002D40DE008F101018846B9420FDA8045C3
:1028E000F8DB1AF808100029F4D108E008F101011A
:1028F00088468142FADB1AF808100029F6D10598BB
:102900005B46A0EB080721463846179A00F094FA78
:10291000284400EB080507E04DE029E10DE01AF836
:10292000010B5A4617999047B8F10108F7D25B4658
:1029300021463846179A13E142E00A220092C4F376
:1029400002524FF0000A022A08D059F804CB032A99
:102950004FEAEC710AD00DE029E02AE009F1070105
:1029600021F00702F2E802C1914609E00FFA8CFC5F
:102970004FEAEC71042A03D14FFA8CFC4FEAEC7158
:10298000002907DA0A460021DCF1000C61EB0201A4
:102990002D2202E0220504D52B228DF804200122ED
:1029A00003E0E20701D02022F7E7904659E00A2130
:1029B00002E010220DE010214FF0000A00910BE020
:1029C00010224FF0000A44F004040827009203E0AC
:1029D00008224FF0000A0092C4F30252022A05D0E6
:1029E00059F804CB0021032A08D009E009F10701B6
:1029F00021F00702F2E802C1914605E01FFA8CFCC3
:102A0000042A01D10CF0FF0C4FF00008220728D552
:102A1000702806D0009B83F0100353EA0A0305D008
:102A20000EE040228DF80420012208E05CEA010259
:102A300006D030228DF804208DF805000222904641
:102A4000009B83F0080353EA0A030AD15CEA0102FF
:102A500001D1620705D530228DF804204FF001081E
:102A60007F1E582804D034A003900EA802900DE0D9
:102A700036A0F9E753466046009AFDF7C1FB84464D
:102A80000398825C0298401E029002705CEA01008A
:102A9000F0D1029806A9081A00F1200A600702D5B1
:102AA00024F4803400E00127574502DDA7EB0A003B
:102AB00000E0002000EB0A01009005984144401A14
:102AC0000590E00306D45B462146179A059800F06E
:102AD000B3F90544002706E001A85A46C05D1799DE
:102AE00090476D1C7F1C4745F6DBE0030CD55B4629
:102AF0002146179A059800F09FF9054404E030201C
:102B00005A46179990476D1C0099481E009000295D
:102B1000F5DC08E0029802995A460078491C0291B7
:102B2000179990476D1CBAF10001AAF1010AF1DC76
:102B300065E1000009280100303132333435363781
:102B400038396162636465660000000030313233F9
:102B50003435363738394142434445460000000099
:102B600000F058F90544761C307800287FF4ECAD6D
:102B700019B02846BDE8F08F620700D4062709F196
:102B8000070222F0070CFCE80223E14603F00048AC
:102B90005FEA080C02D00FF2702C0DE05FEA045CD3
:102BA00002D50FF2682C07E05FEAC47C02D00FF276
:102BB000602C01E0AFF2700C4FF0FF3823F00043BF
:102BC000CDF850C065280CD006DC452809D0462831
:102BD0001DD047283DD13DE0662818D067287ED11A
:102BE00038E00021112F01DB112000E0781CCDE935
:102BF000000106A90EA8FFF7DDFCDDE90F010E9A22
:102C000003910021009207F1010A04914DE04FF079
:102C100000400097CDE9011006A90EA8FFF7CAFCF5
:102C2000DDE90F0203920E9B11990022DDF80CA042
:102C30000093049211B9791C00EB010AB7EB0A006A
:102C400004D4C0F1FF3007F1010A0490AAEB070099
:102C5000019044E0012F00DA01270021112F01DD4E
:102C6000112000E03846CDE9000106A90EA8FFF7C3
:102C7000A1FCDDE90F010E9A03910021049100925D
:102C8000BA4621070CD40399514500DA8A46BAF1B5
:102C9000010F05DD009AAAF10101515C302908D02D
:102CA000B84202DA10F1040F06DA0121CDE9011071
:102CB00015E0AAF10101E9E7002805DC04990144C7
:102CC0000491AAEB000102E0411C514500DD8A4657
:102CD0000499401A401C01904FF0004002902007D8
:102CE00004D40198504501DBCDF8048000208DF814
:102CF0004F0002980DF14F07B0F1004F25D02B2067
:102D00000E9002984FF0020800280CDA4042029020
:102D10002D200E9007E00A210298FDF7A9FA303124
:102D2000029007F8011DB8F10001A8F10108F2DCDA
:102D300002980028EFD1791E0E980870307800F0C4
:102D4000200040F0450007F8020D12A8C01B00F15A
:102D500007081498007800B1012000EB0A010198DF
:102D600001EBE07105984144401A401E0590E003D4
:102D700006D45B462146179A059800F05DF8054495
:102D80001498007818B15A46179990476D1CE003C3
:102D900024D55B462146179A059800F04DF8054466
:102DA0001CE00498002807DBDDE90301884203DD0D
:102DB0000098405C179901E0179930205A469047D7
:102DC000049805F10105401C04900198401E0190F3
:102DD00004D12E205A46179990476D1CBAF1000174
:102DE000AAF1010ADDDC05E017F8010B5A46179934
:102DF00090476D1CB8F10001A8F10108F4DC5B46B6
:102E00002146179A0598ABE62D0000002B00000024
:102E1000200000002DE9F041044600251E4617461B
:102E2000880404D405E039462020B0476D1C641E98
:102E3000F9D52846BDE8F0812DE9F041044600258A
:102E40001E469046C80301D5302700E0202788049D
:102E500004D505E041463846B0476D1C641EF9D5DF
:102E60002846BDE8F0810A68531C0B60107070475B
:102E70001CB5FEF72FF8FFF77DF8FEF7BFFFFEF752
:102E8000F1FFFFF719F8FFF73DF8FEF783FF15494B
:102E9000134808600846FDF7D6FE00B1FEE70020A3
:102EA0000090019002460F486946FDF7ABFE00B165
:102EB000FEE70C484838FDF743FE00B1FEE709483D
:102EC0004838FDF7E1FD07484838FDF78FFD01461A
:102ED00005A000F00DF8C820FDF7EAFEEFE70000BE
:102EE000007400405800002025640D0A0000000016
:102EF0000FB410B503A9029800F004F810BC5DF8F7
:102F000014FB000000B5B3B00A4601466846FFF75F
:102F10002FFB002809DD6846FDF7A3F982B20448BB
:102F20006FF07F436946FEF7D9FE33B000BD000065
:102F3000EC0000200000000000000000010203047B
:102F40000607080900000000010203046C2F0008B6
:102F50000000002010000000942500087C2F0008CD
:102F60001000002048060000A42500080100000011
:0C2F700010000000000000000024F4002D
:04000005080001C925
:00000001FF
